{
  "abi": [
    {
      "inputs": [
        {
          "internalType": "string",
          "name": "_name",
          "type": "string"
        }
      ],
      "stateMutability": "nonpayable",
      "type": "constructor"
    },
    {
      "anonymous": false,
      "inputs": [
        {
          "indexed": false,
          "internalType": "uint256",
          "name": "id",
          "type": "uint256"
        },
        {
          "indexed": false,
          "internalType": "string",
          "name": "title",
          "type": "string"
        },
        {
          "indexed": false,
          "internalType": "string",
          "name": "description",
          "type": "string"
        }
      ],
      "name": "ProposalCreated",
      "type": "event"
    },
    {
      "anonymous": false,
      "inputs": [
        {
          "indexed": false,
          "internalType": "uint256",
          "name": "id",
          "type": "uint256"
        },
        {
          "indexed": false,
          "internalType": "string",
          "name": "voteType",
          "type": "string"
        },
        {
          "indexed": false,
          "internalType": "uint256",
          "name": "count",
          "type": "uint256"
        }
      ],
      "name": "VoteCast",
      "type": "event"
    },
    {
      "inputs": [
        {
          "internalType": "string",
          "name": "title",
          "type": "string"
        },
        {
          "internalType": "string",
          "name": "description",
          "type": "string"
        }
      ],
      "name": "createProposal",
      "outputs": [],
      "stateMutability": "nonpayable",
      "type": "function"
    },
    {
      "inputs": [],
      "name": "fetchAllProposals",
      "outputs": [
        {
          "components": [
            {
              "internalType": "uint256",
              "name": "id",
              "type": "uint256"
            },
            {
              "internalType": "string",
              "name": "title",
              "type": "string"
            },
            {
              "internalType": "string",
              "name": "description",
              "type": "string"
            },
            {
              "internalType": "uint256",
              "name": "yesVotes",
              "type": "uint256"
            },
            {
              "internalType": "uint256",
              "name": "noVotes",
              "type": "uint256"
            },
            {
              "internalType": "uint256",
              "name": "abstainVotes",
              "type": "uint256"
            }
          ],
          "internalType": "struct Proposal.Proposal[]",
          "name": "",
          "type": "tuple[]"
        }
      ],
      "stateMutability": "view",
      "type": "function"
    },
    {
      "inputs": [
        {
          "internalType": "uint256",
          "name": "proposalId",
          "type": "uint256"
        }
      ],
      "name": "fetchProposal",
      "outputs": [
        {
          "components": [
            {
              "internalType": "uint256",
              "name": "id",
              "type": "uint256"
            },
            {
              "internalType": "string",
              "name": "title",
              "type": "string"
            },
            {
              "internalType": "string",
              "name": "description",
              "type": "string"
            },
            {
              "internalType": "uint256",
              "name": "yesVotes",
              "type": "uint256"
            },
            {
              "internalType": "uint256",
              "name": "noVotes",
              "type": "uint256"
            },
            {
              "internalType": "uint256",
              "name": "abstainVotes",
              "type": "uint256"
            }
          ],
          "internalType": "struct Proposal.Proposal",
          "name": "",
          "type": "tuple"
        }
      ],
      "stateMutability": "view",
      "type": "function"
    },
    {
      "inputs": [
        {
          "internalType": "uint256",
          "name": "proposalId",
          "type": "uint256"
        }
      ],
      "name": "fetchVotes",
      "outputs": [
        {
          "internalType": "uint256",
          "name": "yesVotes",
          "type": "uint256"
        },
        {
          "internalType": "uint256",
          "name": "noVotes",
          "type": "uint256"
        },
        {
          "internalType": "uint256",
          "name": "abstainVotes",
          "type": "uint256"
        }
      ],
      "stateMutability": "view",
      "type": "function"
    },
    {
      "inputs": [],
      "name": "name",
      "outputs": [
        {
          "internalType": "string",
          "name": "",
          "type": "string"
        }
      ],
      "stateMutability": "view",
      "type": "function"
    },
    {
      "inputs": [],
      "name": "owner",
      "outputs": [
        {
          "internalType": "address",
          "name": "",
          "type": "address"
        }
      ],
      "stateMutability": "view",
      "type": "function"
    },
    {
      "inputs": [
        {
          "internalType": "uint256",
          "name": "proposalId",
          "type": "uint256"
        },
        {
          "internalType": "string",
          "name": "voteType",
          "type": "string"
        }
      ],
      "name": "vote",
      "outputs": [],
      "stateMutability": "nonpayable",
      "type": "function"
    }
  ],
  "bytecode": {
    "object": "0x60806040523480156200001157600080fd5b506040516200104138038062001041833981016040819052620000349162000072565b6000620000428282620001d6565b5050600180546001600160a01b03191633179055620002a2565b634e487b7160e01b600052604160045260246000fd5b600060208083850312156200008657600080fd5b82516001600160401b03808211156200009e57600080fd5b818501915085601f830112620000b357600080fd5b815181811115620000c857620000c86200005c565b604051601f8201601f19908116603f01168101908382118183101715620000f357620000f36200005c565b8160405282815288868487010111156200010c57600080fd5b600093505b8284101562000130578484018601518185018701529285019262000111565b600086848301015280965050505050505092915050565b600181811c908216806200015c57607f821691505b6020821081036200017d57634e487b7160e01b600052602260045260246000fd5b50919050565b601f821115620001d157600081815260208120601f850160051c81016020861015620001ac5750805b601f850160051c820191505b81811015620001cd57828155600101620001b8565b5050505b505050565b81516001600160401b03811115620001f257620001f26200005c565b6200020a8162000203845462000147565b8462000183565b602080601f831160018114620002425760008415620002295750858301515b600019600386901b1c1916600185901b178555620001cd565b600085815260208120601f198616915b82811015620002735788860151825594840194600190910190840162000252565b5085821015620002925787850151600019600388901b60f8161c191681555b5050505050600190811b01905550565b610d8f80620002b26000396000f3fe608060405234801561001057600080fd5b506004361061007d5760003560e01c80632ed2fc9e1161005b5780632ed2fc9e146100ca57806365e481e2146100ea5780638da5cb5b146100fd5780639844d2cf1461012857600080fd5b806306fdde031461008257806324108475146100a05780632d9a65f9146100b5575b600080fd5b61008a610175565b6040516100979190610905565b60405180910390f35b6100b36100ae3660046109c2565b610203565b005b6100bd610437565b6040516100979190610a6c565b6100dd6100d8366004610ace565b610687565b6040516100979190610ae7565b6100b36100f8366004610afa565b610831565b600154610110906001600160a01b031681565b6040516001600160a01b039091168152602001610097565b61015a610136366004610ace565b60009081526003602081905260409091209081015460048201546005909201549092565b60408051938452602084019290925290820152606001610097565b6000805461018290610b54565b80601f01602080910402602001604051908101604052809291908181526020018280546101ae90610b54565b80156101fb5780601f106101d0576101008083540402835291602001916101fb565b820191906000526020600020905b8154815290600101906020018083116101de57829003601f168201915b505050505081565b3360009081526004602052604090205460ff16156102685760405162461bcd60e51b815260206004820152601f60248201527f5468697320616464726573732068617320616c726561647920766f7465642e0060448201526064015b60405180910390fd5b60008281526003602081815260409283902083518085019094529183526279657360e81b928101929092528251918301919091207f6f204705c8f86251565e534c1bdc1dcae0f45c04d830aa405be52d073a745157016102e25760018160030160008282546102d79190610ba4565b909155506103da9050565b6040805180820190915260028152616e6f60f01b6020918201528251908301207f829ee62c11807d11ac553a82b2f770744535a553ce6e44f8bdad39289f51b1460161033d5760018160040160008282546102d79190610ba4565b60408051808201909152600781526630b139ba30b4b760c91b6020918201528251908301207f85d7273582be488ab6599c8ab4f204a4a8c554ece1ed3c8123b9989cd0caadff0161039d5760018160050160008282546102d79190610ba4565b60405162461bcd60e51b815260206004820152601260248201527124b73b30b634b2103b37ba32903a3cb8329760711b604482015260640161025f565b3360009081526004602052604090819020805460ff1916600190811790915590517f7443492b9be7d0c78915e97bcabcb827676bf0292f1b78d919b33ca1a881a66b9161042a9186918691610bbd565b60405180910390a1505050565b60025460609060008167ffffffffffffffff8111156104585761045861091f565b6040519080825280602002602001820160405280156104c257816020015b6104af6040518060c001604052806000815260200160608152602001606081526020016000815260200160008152602001600081525090565b8152602001906001900390816104765790505b50905060005b828110156106805760006104dd826001610ba4565b90506000600360008381526020019081526020016000209050806040518060c00160405290816000820154815260200160018201805461051c90610b54565b80601f016020809104026020016040519081016040528092919081815260200182805461054890610b54565b80156105955780601f1061056a57610100808354040283529160200191610595565b820191906000526020600020905b81548152906001019060200180831161057857829003601f168201915b505050505081526020016002820180546105ae90610b54565b80601f01602080910402602001604051908101604052809291908181526020018280546105da90610b54565b80156106275780601f106105fc57610100808354040283529160200191610627565b820191906000526020600020905b81548152906001019060200180831161060a57829003601f168201915b50505050508152602001600382015481526020016004820154815260200160058201548152505084848151811061066057610660610be6565b60200260200101819052505050808061067890610bfc565b9150506104c8565b5092915050565b6106c06040518060c001604052806000815260200160608152602001606081526020016000815260200160008152602001600081525090565b600360008381526020019081526020016000206040518060c0016040529081600082015481526020016001820180546106f890610b54565b80601f016020809104026020016040519081016040528092919081815260200182805461072490610b54565b80156107715780601f1061074657610100808354040283529160200191610771565b820191906000526020600020905b81548152906001019060200180831161075457829003601f168201915b5050505050815260200160028201805461078a90610b54565b80601f01602080910402602001604051908101604052809291908181526020018280546107b690610b54565b80156108035780601f106107d857610100808354040283529160200191610803565b820191906000526020600020905b8154815290600101906020018083116107e657829003601f168201915b5050505050815260200160038201548152602001600482015481526020016005820154815250509050919050565b6001546001600160a01b0316331461084857600080fd5b600254610856906001610ba4565b600281905560008181526003602052604090209081556001810161087a8482610c64565b50600281016108898382610c64565b507fab417751734d6a1f646db70d698328fa08bc6c3f8d4b8ef2a69adb1eb051496b600254848460405161042a93929190610d24565b6000815180845260005b818110156108e5576020818501810151868301820152016108c9565b506000602082860101526020601f19601f83011685010191505092915050565b60208152600061091860208301846108bf565b9392505050565b634e487b7160e01b600052604160045260246000fd5b600082601f83011261094657600080fd5b813567ffffffffffffffff808211156109615761096161091f565b604051601f8301601f19908116603f011681019082821181831017156109895761098961091f565b816040528381528660208588010111156109a257600080fd5b836020870160208301376000602085830101528094505050505092915050565b600080604083850312156109d557600080fd5b82359150602083013567ffffffffffffffff8111156109f357600080fd5b6109ff85828601610935565b9150509250929050565b805182526000602082015160c06020850152610a2860c08501826108bf565b905060408301518482036040860152610a4182826108bf565b915050606083015160608501526080830151608085015260a083015160a08501528091505092915050565b6000602080830181845280855180835260408601915060408160051b870101925083870160005b82811015610ac157603f19888603018452610aaf858351610a09565b94509285019290850190600101610a93565b5092979650505050505050565b600060208284031215610ae057600080fd5b5035919050565b6020815260006109186020830184610a09565b60008060408385031215610b0d57600080fd5b823567ffffffffffffffff80821115610b2557600080fd5b610b3186838701610935565b93506020850135915080821115610b4757600080fd5b506109ff85828601610935565b600181811c90821680610b6857607f821691505b602082108103610b8857634e487b7160e01b600052602260045260246000fd5b50919050565b634e487b7160e01b600052601160045260246000fd5b80820180821115610bb757610bb7610b8e565b92915050565b838152606060208201526000610bd660608301856108bf565b9050826040830152949350505050565b634e487b7160e01b600052603260045260246000fd5b600060018201610c0e57610c0e610b8e565b5060010190565b601f821115610c5f57600081815260208120601f850160051c81016020861015610c3c5750805b601f850160051c820191505b81811015610c5b57828155600101610c48565b5050505b505050565b815167ffffffffffffffff811115610c7e57610c7e61091f565b610c9281610c8c8454610b54565b84610c15565b602080601f831160018114610cc75760008415610caf5750858301515b600019600386901b1c1916600185901b178555610c5b565b600085815260208120601f198616915b82811015610cf657888601518255948401946001909101908401610cd7565b5085821015610d145787850151600019600388901b60f8161c191681555b5050505050600190811b01905550565b838152606060208201526000610d3d60608301856108bf565b8281036040840152610d4f81856108bf565b969550505050505056fea26469706673582212207910ff76bf3f8e2a1af6beda423dd3b27e1bfe8375e3673ae50aef34cdcb3fff64736f6c63430008130033",
    "linkReferences": {}
  },
  "methodIdentifiers": {
    "createProposal(string,string)": "65e481e2",
    "fetchAllProposals()": "2d9a65f9",
    "fetchProposal(uint256)": "2ed2fc9e",
    "fetchVotes(uint256)": "9844d2cf",
    "name()": "06fdde03",
    "owner()": "8da5cb5b",
    "vote(uint256,string)": "24108475"
  },
  "id": 19
}