{
  "abi": [
    {
      "inputs": [
        {
          "internalType": "string",
          "name": "_name",
          "type": "string"
        }
      ],
      "stateMutability": "nonpayable",
      "type": "constructor"
    },
    {
      "anonymous": false,
      "inputs": [
        {
          "indexed": false,
          "internalType": "uint256",
          "name": "id",
          "type": "uint256"
        },
        {
          "indexed": false,
          "internalType": "string",
          "name": "title",
          "type": "string"
        },
        {
          "indexed": false,
          "internalType": "string",
          "name": "description",
          "type": "string"
        }
      ],
      "name": "ProposalCreated",
      "type": "event"
    },
    {
      "anonymous": false,
      "inputs": [
        {
          "indexed": false,
          "internalType": "uint256",
          "name": "id",
          "type": "uint256"
        },
        {
          "indexed": false,
          "internalType": "string",
          "name": "voteType",
          "type": "string"
        },
        {
          "indexed": false,
          "internalType": "uint256",
          "name": "count",
          "type": "uint256"
        }
      ],
      "name": "VoteCast",
      "type": "event"
    },
    {
      "inputs": [
        {
          "internalType": "string",
          "name": "title",
          "type": "string"
        },
        {
          "internalType": "string",
          "name": "description",
          "type": "string"
        }
      ],
      "name": "createProposal",
      "outputs": [],
      "stateMutability": "nonpayable",
      "type": "function"
    },
    {
      "inputs": [],
      "name": "fetchAllProposals",
      "outputs": [
        {
          "components": [
            {
              "internalType": "uint256",
              "name": "id",
              "type": "uint256"
            },
            {
              "internalType": "string",
              "name": "title",
              "type": "string"
            },
            {
              "internalType": "string",
              "name": "description",
              "type": "string"
            },
            {
              "internalType": "uint256",
              "name": "yesVotes",
              "type": "uint256"
            },
            {
              "internalType": "uint256",
              "name": "noVotes",
              "type": "uint256"
            },
            {
              "internalType": "uint256",
              "name": "abstainVotes",
              "type": "uint256"
            }
          ],
          "internalType": "struct Proposal.Proposal[]",
          "name": "",
          "type": "tuple[]"
        }
      ],
      "stateMutability": "view",
      "type": "function"
    },
    {
      "inputs": [
        {
          "internalType": "uint256",
          "name": "proposalId",
          "type": "uint256"
        }
      ],
      "name": "fetchProposal",
      "outputs": [
        {
          "components": [
            {
              "internalType": "uint256",
              "name": "id",
              "type": "uint256"
            },
            {
              "internalType": "string",
              "name": "title",
              "type": "string"
            },
            {
              "internalType": "string",
              "name": "description",
              "type": "string"
            },
            {
              "internalType": "uint256",
              "name": "yesVotes",
              "type": "uint256"
            },
            {
              "internalType": "uint256",
              "name": "noVotes",
              "type": "uint256"
            },
            {
              "internalType": "uint256",
              "name": "abstainVotes",
              "type": "uint256"
            }
          ],
          "internalType": "struct Proposal.Proposal",
          "name": "",
          "type": "tuple"
        }
      ],
      "stateMutability": "view",
      "type": "function"
    },
    {
      "inputs": [
        {
          "internalType": "uint256",
          "name": "proposalId",
          "type": "uint256"
        }
      ],
      "name": "fetchVotes",
      "outputs": [
        {
          "internalType": "uint256",
          "name": "yesVotes",
          "type": "uint256"
        },
        {
          "internalType": "uint256",
          "name": "noVotes",
          "type": "uint256"
        },
        {
          "internalType": "uint256",
          "name": "abstainVotes",
          "type": "uint256"
        }
      ],
      "stateMutability": "view",
      "type": "function"
    },
    {
      "inputs": [
        {
          "internalType": "uint256",
          "name": "proposalId",
          "type": "uint256"
        },
        {
          "internalType": "address",
          "name": "voter",
          "type": "address"
        }
      ],
      "name": "getVote",
      "outputs": [
        {
          "internalType": "string",
          "name": "",
          "type": "string"
        }
      ],
      "stateMutability": "view",
      "type": "function"
    },
    {
      "inputs": [],
      "name": "name",
      "outputs": [
        {
          "internalType": "string",
          "name": "",
          "type": "string"
        }
      ],
      "stateMutability": "view",
      "type": "function"
    },
    {
      "inputs": [],
      "name": "owner",
      "outputs": [
        {
          "internalType": "address",
          "name": "",
          "type": "address"
        }
      ],
      "stateMutability": "view",
      "type": "function"
    },
    {
      "inputs": [
        {
          "internalType": "uint256",
          "name": "proposalId",
          "type": "uint256"
        },
        {
          "internalType": "string",
          "name": "voteType",
          "type": "string"
        }
      ],
      "name": "vote",
      "outputs": [],
      "stateMutability": "nonpayable",
      "type": "function"
    }
  ],
  "bytecode": {
    "object": "0x60806040523480156200001157600080fd5b50604051620011dd380380620011dd833981016040819052620000349162000072565b6000620000428282620001d6565b5050600180546001600160a01b03191633179055620002a2565b634e487b7160e01b600052604160045260246000fd5b600060208083850312156200008657600080fd5b82516001600160401b03808211156200009e57600080fd5b818501915085601f830112620000b357600080fd5b815181811115620000c857620000c86200005c565b604051601f8201601f19908116603f01168101908382118183101715620000f357620000f36200005c565b8160405282815288868487010111156200010c57600080fd5b600093505b8284101562000130578484018601518185018701529285019262000111565b600086848301015280965050505050505092915050565b600181811c908216806200015c57607f821691505b6020821081036200017d57634e487b7160e01b600052602260045260246000fd5b50919050565b601f821115620001d157600081815260208120601f850160051c81016020861015620001ac5750805b601f850160051c820191505b81811015620001cd57828155600101620001b8565b5050505b505050565b81516001600160401b03811115620001f257620001f26200005c565b6200020a8162000203845462000147565b8462000183565b602080601f831160018114620002425760008415620002295750858301515b600019600386901b1c1916600185901b178555620001cd565b600085815260208120601f198616915b82811015620002735788860151825594840194600190910190840162000252565b5085821015620002925787850151600019600388901b60f8161c191681555b5050505050600190811b01905550565b610f2b80620002b26000396000f3fe608060405234801561001057600080fd5b50600436106100885760003560e01c806365e481e21161005b57806365e481e2146100f55780638da5cb5b146101085780639844d2cf14610133578063bc3f931f1461018057600080fd5b806306fdde031461008d57806324108475146100ab5780632d9a65f9146100c05780632ed2fc9e146100d5575b600080fd5b610095610193565b6040516100a29190610a6b565b60405180910390f35b6100be6100b9366004610b28565b610221565b005b6100c8610489565b6040516100a29190610bd2565b6100e86100e3366004610c34565b6106d9565b6040516100a29190610c4d565b6100be610103366004610c60565b610883565b60015461011b906001600160a01b031681565b6040516001600160a01b0390911681526020016100a2565b610165610141366004610c34565b60009081526003602081905260409091209081015460048201546005909201549092565b604080519384526020840192909252908201526060016100a2565b61009561018e366004610cba565b610911565b600080546101a090610cf6565b80601f01602080910402602001604051908101604052809291908181526020018280546101cc90610cf6565b80156102195780601f106101ee57610100808354040283529160200191610219565b820191906000526020600020905b8154815290600101906020018083116101fc57829003601f168201915b505050505081565b60008281526004602090815260408083203384529091529020805461024590610cf6565b1590506102b25760405162461bcd60e51b815260206004820152603060248201527f5468697320616464726573732068617320616c726561647920766f746564206f60448201526f37103a3434b990383937b837b9b0b61760811b60648201526084015b60405180910390fd5b60008281526003602081815260409283902083518085019094529183526279657360e81b928101929092528251918301919091207f6f204705c8f86251565e534c1bdc1dcae0f45c04d830aa405be52d073a7451570161032c5760018160030160008282546103219190610d46565b909155506104249050565b6040805180820190915260028152616e6f60f01b6020918201528251908301207f829ee62c11807d11ac553a82b2f770744535a553ce6e44f8bdad39289f51b146016103875760018160040160008282546103219190610d46565b60408051808201909152600781526630b139ba30b4b760c91b6020918201528251908301207f85d7273582be488ab6599c8ab4f204a4a8c554ece1ed3c8123b9989cd0caadff016103e75760018160050160008282546103219190610d46565b60405162461bcd60e51b815260206004820152601260248201527124b73b30b634b2103b37ba32903a3cb8329760711b60448201526064016102a9565b600083815260046020908152604080832033845290915290206104478382610da8565b507f7443492b9be7d0c78915e97bcabcb827676bf0292f1b78d919b33ca1a881a66b8383600160405161047c93929190610e68565b60405180910390a1505050565b60025460609060008167ffffffffffffffff8111156104aa576104aa610a85565b60405190808252806020026020018201604052801561051457816020015b6105016040518060c001604052806000815260200160608152602001606081526020016000815260200160008152602001600081525090565b8152602001906001900390816104c85790505b50905060005b828110156106d257600061052f826001610d46565b90506000600360008381526020019081526020016000209050806040518060c00160405290816000820154815260200160018201805461056e90610cf6565b80601f016020809104026020016040519081016040528092919081815260200182805461059a90610cf6565b80156105e75780601f106105bc576101008083540402835291602001916105e7565b820191906000526020600020905b8154815290600101906020018083116105ca57829003601f168201915b5050505050815260200160028201805461060090610cf6565b80601f016020809104026020016040519081016040528092919081815260200182805461062c90610cf6565b80156106795780601f1061064e57610100808354040283529160200191610679565b820191906000526020600020905b81548152906001019060200180831161065c57829003601f168201915b5050505050815260200160038201548152602001600482015481526020016005820154815250508484815181106106b2576106b2610e91565b6020026020010181905250505080806106ca90610ea7565b91505061051a565b5092915050565b6107126040518060c001604052806000815260200160608152602001606081526020016000815260200160008152602001600081525090565b600360008381526020019081526020016000206040518060c00160405290816000820154815260200160018201805461074a90610cf6565b80601f016020809104026020016040519081016040528092919081815260200182805461077690610cf6565b80156107c35780601f10610798576101008083540402835291602001916107c3565b820191906000526020600020905b8154815290600101906020018083116107a657829003601f168201915b505050505081526020016002820180546107dc90610cf6565b80601f016020809104026020016040519081016040528092919081815260200182805461080890610cf6565b80156108555780601f1061082a57610100808354040283529160200191610855565b820191906000526020600020905b81548152906001019060200180831161083857829003601f168201915b5050505050815260200160038201548152602001600482015481526020016005820154815250509050919050565b6001546001600160a01b0316331461089a57600080fd5b6002546108a8906001610d46565b60028190556000818152600360205260409020908155600181016108cc8482610da8565b50600281016108db8382610da8565b507fab417751734d6a1f646db70d698328fa08bc6c3f8d4b8ef2a69adb1eb051496b600254848460405161047c93929190610ec0565b60008281526004602090815260408083206001600160a01b0385168452909152902080546060919061094290610cf6565b90506000036109715750604080518082019091526009815268139bdd08159bdd195960ba1b6020820152610a1f565b60008381526004602090815260408083206001600160a01b03861684529091529020805461099e90610cf6565b80601f01602080910402602001604051908101604052809291908181526020018280546109ca90610cf6565b8015610a175780601f106109ec57610100808354040283529160200191610a17565b820191906000526020600020905b8154815290600101906020018083116109fa57829003601f168201915b505050505090505b92915050565b6000815180845260005b81811015610a4b57602081850181015186830182015201610a2f565b506000602082860101526020601f19601f83011685010191505092915050565b602081526000610a7e6020830184610a25565b9392505050565b634e487b7160e01b600052604160045260246000fd5b600082601f830112610aac57600080fd5b813567ffffffffffffffff80821115610ac757610ac7610a85565b604051601f8301601f19908116603f01168101908282118183101715610aef57610aef610a85565b81604052838152866020858801011115610b0857600080fd5b836020870160208301376000602085830101528094505050505092915050565b60008060408385031215610b3b57600080fd5b82359150602083013567ffffffffffffffff811115610b5957600080fd5b610b6585828601610a9b565b9150509250929050565b805182526000602082015160c06020850152610b8e60c0850182610a25565b905060408301518482036040860152610ba78282610a25565b915050606083015160608501526080830151608085015260a083015160a08501528091505092915050565b6000602080830181845280855180835260408601915060408160051b870101925083870160005b82811015610c2757603f19888603018452610c15858351610b6f565b94509285019290850190600101610bf9565b5092979650505050505050565b600060208284031215610c4657600080fd5b5035919050565b602081526000610a7e6020830184610b6f565b60008060408385031215610c7357600080fd5b823567ffffffffffffffff80821115610c8b57600080fd5b610c9786838701610a9b565b93506020850135915080821115610cad57600080fd5b50610b6585828601610a9b565b60008060408385031215610ccd57600080fd5b8235915060208301356001600160a01b0381168114610ceb57600080fd5b809150509250929050565b600181811c90821680610d0a57607f821691505b602082108103610d2a57634e487b7160e01b600052602260045260246000fd5b50919050565b634e487b7160e01b600052601160045260246000fd5b80820180821115610a1f57610a1f610d30565b601f821115610da357600081815260208120601f850160051c81016020861015610d805750805b601f850160051c820191505b81811015610d9f57828155600101610d8c565b5050505b505050565b815167ffffffffffffffff811115610dc257610dc2610a85565b610dd681610dd08454610cf6565b84610d59565b602080601f831160018114610e0b5760008415610df35750858301515b600019600386901b1c1916600185901b178555610d9f565b600085815260208120601f198616915b82811015610e3a57888601518255948401946001909101908401610e1b565b5085821015610e585787850151600019600388901b60f8161c191681555b5050505050600190811b01905550565b838152606060208201526000610e816060830185610a25565b9050826040830152949350505050565b634e487b7160e01b600052603260045260246000fd5b600060018201610eb957610eb9610d30565b5060010190565b838152606060208201526000610ed96060830185610a25565b8281036040840152610eeb8185610a25565b969550505050505056fea264697066735822122077a272a7f336fec65027300f24c8e6a62a529014af8c093be7efb2f6934b672764736f6c63430008130033",
    "linkReferences": {}
  },
  "methodIdentifiers": {
    "createProposal(string,string)": "65e481e2",
    "fetchAllProposals()": "2d9a65f9",
    "fetchProposal(uint256)": "2ed2fc9e",
    "fetchVotes(uint256)": "9844d2cf",
    "getVote(uint256,address)": "bc3f931f",
    "name()": "06fdde03",
    "owner()": "8da5cb5b",
    "vote(uint256,string)": "24108475"
  },
  "id": 19
}